{
  "contractName": "CapCoin",
  "abi": [
    {
      "constant": true,
      "inputs": [
        {
          "name": "",
          "type": "uint256"
        }
      ],
      "name": "posts",
      "outputs": [
        {
          "name": "",
          "type": "address"
        }
      ],
      "payable": false,
      "stateMutability": "view",
      "type": "function"
    },
    {
      "constant": false,
      "inputs": [
        {
          "name": "amount",
          "type": "uint256"
        }
      ],
      "name": "buyTokens",
      "outputs": [],
      "payable": true,
      "stateMutability": "payable",
      "type": "function"
    },
    {
      "constant": false,
      "inputs": [
        {
          "name": "url",
          "type": "string"
        },
        {
          "name": "caption",
          "type": "string"
        }
      ],
      "name": "createPost",
      "outputs": [],
      "payable": false,
      "stateMutability": "nonpayable",
      "type": "function"
    },
    {
      "constant": false,
      "inputs": [],
      "name": "kill",
      "outputs": [],
      "payable": false,
      "stateMutability": "nonpayable",
      "type": "function"
    },
    {
      "constant": true,
      "inputs": [],
      "name": "getPosts",
      "outputs": [
        {
          "name": "",
          "type": "address[]"
        }
      ],
      "payable": false,
      "stateMutability": "view",
      "type": "function"
    },
    {
      "constant": false,
      "inputs": [
        {
          "name": "post",
          "type": "address"
        },
        {
          "name": "amount",
          "type": "uint256"
        }
      ],
      "name": "likePost",
      "outputs": [],
      "payable": false,
      "stateMutability": "nonpayable",
      "type": "function"
    },
    {
      "constant": false,
      "inputs": [
        {
          "name": "name",
          "type": "string"
        }
      ],
      "name": "createUser",
      "outputs": [],
      "payable": false,
      "stateMutability": "nonpayable",
      "type": "function"
    },
    {
      "constant": true,
      "inputs": [
        {
          "name": "",
          "type": "address"
        }
      ],
      "name": "addressToPost",
      "outputs": [
        {
          "name": "url",
          "type": "string"
        },
        {
          "name": "userName",
          "type": "string"
        },
        {
          "name": "lotteryAmount",
          "type": "int256"
        },
        {
          "name": "owner",
          "type": "address"
        },
        {
          "name": "caption",
          "type": "string"
        }
      ],
      "payable": false,
      "stateMutability": "view",
      "type": "function"
    },
    {
      "constant": true,
      "inputs": [],
      "name": "getUser",
      "outputs": [
        {
          "name": "",
          "type": "string"
        },
        {
          "name": "",
          "type": "uint256"
        },
        {
          "name": "",
          "type": "string"
        },
        {
          "name": "",
          "type": "int256"
        },
        {
          "name": "",
          "type": "address"
        }
      ],
      "payable": false,
      "stateMutability": "view",
      "type": "function"
    },
    {
      "constant": true,
      "inputs": [],
      "name": "owner",
      "outputs": [
        {
          "name": "",
          "type": "address"
        }
      ],
      "payable": false,
      "stateMutability": "view",
      "type": "function"
    },
    {
      "constant": false,
      "inputs": [
        {
          "name": "name",
          "type": "string"
        },
        {
          "name": "url",
          "type": "string"
        },
        {
          "name": "amount",
          "type": "uint256"
        },
        {
          "name": "caption",
          "type": "string"
        }
      ],
      "name": "seed",
      "outputs": [],
      "payable": false,
      "stateMutability": "nonpayable",
      "type": "function"
    },
    {
      "constant": true,
      "inputs": [
        {
          "name": "",
          "type": "address"
        }
      ],
      "name": "addressToUser",
      "outputs": [
        {
          "name": "name",
          "type": "string"
        },
        {
          "name": "coinBalance",
          "type": "uint256"
        }
      ],
      "payable": false,
      "stateMutability": "view",
      "type": "function"
    },
    {
      "constant": false,
      "inputs": [
        {
          "name": "newOwner",
          "type": "address"
        }
      ],
      "name": "transferOwnership",
      "outputs": [],
      "payable": false,
      "stateMutability": "nonpayable",
      "type": "function"
    },
    {
      "inputs": [],
      "payable": false,
      "stateMutability": "nonpayable",
      "type": "constructor"
    },
    {
      "payable": true,
      "stateMutability": "payable",
      "type": "fallback"
    },
    {
      "anonymous": false,
      "inputs": [
        {
          "indexed": false,
          "name": "name",
          "type": "string"
        }
      ],
      "name": "NewUser",
      "type": "event"
    },
    {
      "anonymous": false,
      "inputs": [
        {
          "indexed": false,
          "name": "coinBalance",
          "type": "uint256"
        }
      ],
      "name": "BoughtTokens",
      "type": "event"
    },
    {
      "anonymous": false,
      "inputs": [
        {
          "indexed": false,
          "name": "url",
          "type": "string"
        },
        {
          "indexed": false,
          "name": "caption",
          "type": "string"
        }
      ],
      "name": "CreatedPost",
      "type": "event"
    },
    {
      "anonymous": false,
      "inputs": [
        {
          "indexed": false,
          "name": "lotteryAmount",
          "type": "int256"
        },
        {
          "indexed": false,
          "name": "posterName",
          "type": "string"
        },
        {
          "indexed": false,
          "name": "poster",
          "type": "address"
        },
        {
          "indexed": false,
          "name": "posterCoinbalance",
          "type": "uint256"
        },
        {
          "indexed": false,
          "name": "likerName",
          "type": "string"
        },
        {
          "indexed": false,
          "name": "liker",
          "type": "address"
        },
        {
          "indexed": false,
          "name": "likerCoinbalance",
          "type": "uint256"
        }
      ],
      "name": "LikedPost",
      "type": "event"
    },
    {
      "anonymous": false,
      "inputs": [
        {
          "indexed": true,
          "name": "previousOwner",
          "type": "address"
        },
        {
          "indexed": true,
          "name": "newOwner",
          "type": "address"
        }
      ],
      "name": "OwnershipTransferred",
      "type": "event"
    }
  ],
  "bytecode": "0x6060604052620f42406001556000600255341561001b57600080fd5b336000806101000a81548173ffffffffffffffffffffffffffffffffffffffff021916908373ffffffffffffffffffffffffffffffffffffffff16021790555033600360006101000a81548173ffffffffffffffffffffffffffffffffffffffff021916908373ffffffffffffffffffffffffffffffffffffffff160217905550611929806100ab6000396000f3006060604052600436106100c5576000357c0100000000000000000000000000000000000000000000000000000000900463ffffffff1680630b1e7f83146100c75780633610724e1461012a578063392338f51461014257806341c0e1b5146101e257806341f3004a146101f75780634835152914610261578063507ffba5146102a3578063763f17c414610300578063832880e71461051b5780638da5cb5b14610656578063d36a3e5e146106ab578063edf5388614610797578063f2fde38b1461086d575b005b34156100d257600080fd5b6100e860048080359060200190919050506108a6565b604051808273ffffffffffffffffffffffffffffffffffffffff1673ffffffffffffffffffffffffffffffffffffffff16815260200191505060405180910390f35b61014060048080359060200190919050506108e5565b005b341561014d57600080fd5b6101e0600480803590602001908201803590602001908080601f0160208091040260200160405190810160405280939291908181526020018383808284378201915050505050509190803590602001908201803590602001908080601f016020809104026020016040519081016040528093929190818152602001838380828437820191505050505050919050506109e1565b005b34156101ed57600080fd5b6101f5610cd6565b005b341561020257600080fd5b61020a610d69565b6040518080602001828103825283818151815260200191508051906020019060200280838360005b8381101561024d578082015181840152602081019050610232565b505050509050019250505060405180910390f35b341561026c57600080fd5b6102a1600480803573ffffffffffffffffffffffffffffffffffffffff16906020019091908035906020019091905050610dfd565b005b34156102ae57600080fd5b6102fe600480803590602001908201803590602001908080601f016020809104026020016040519081016040528093929190818152602001838380828437820191505050505050919050506111fc565b005b341561030b57600080fd5b610337600480803573ffffffffffffffffffffffffffffffffffffffff16906020019091905050611302565b6040518080602001806020018681526020018573ffffffffffffffffffffffffffffffffffffffff1673ffffffffffffffffffffffffffffffffffffffff168152602001806020018481038452898181546001816001161561010002031660029004815260200191508054600181600116156101000203166002900480156104005780601f106103d557610100808354040283529160200191610400565b820191906000526020600020905b8154815290600101906020018083116103e357829003601f168201915b50508481038352888181546001816001161561010002031660029004815260200191508054600181600116156101000203166002900480156104835780601f1061045857610100808354040283529160200191610483565b820191906000526020600020905b81548152906001019060200180831161046657829003601f168201915b50508481038252858181546001816001161561010002031660029004815260200191508054600181600116156101000203166002900480156105065780601f106104db57610100808354040283529160200191610506565b820191906000526020600020905b8154815290600101906020018083116104e957829003601f168201915b50509850505050505050505060405180910390f35b341561052657600080fd5b61052e611355565b6040518080602001868152602001806020018581526020018473ffffffffffffffffffffffffffffffffffffffff1673ffffffffffffffffffffffffffffffffffffffff168152602001838103835288818151815260200191508051906020019080838360005b838110156105b0578082015181840152602081019050610595565b50505050905090810190601f1680156105dd5780820380516001836020036101000a031916815260200191505b50838103825286818151815260200191508051906020019080838360005b838110156106165780820151818401526020810190506105fb565b50505050905090810190601f1680156106435780820380516001836020036101000a031916815260200191505b5097505050505050505060405180910390f35b341561066157600080fd5b6106696115be565b604051808273ffffffffffffffffffffffffffffffffffffffff1673ffffffffffffffffffffffffffffffffffffffff16815260200191505060405180910390f35b34156106b657600080fd5b610795600480803590602001908201803590602001908080601f0160208091040260200160405190810160405280939291908181526020018383808284378201915050505050509190803590602001908201803590602001908080601f0160208091040260200160405190810160405280939291908181526020018383808284378201915050505050509190803590602001909190803590602001908201803590602001908080601f016020809104026020016040519081016040528093929190818152602001838380828437820191505050505050919050506115e3565b005b34156107a257600080fd5b6107ce600480803573ffffffffffffffffffffffffffffffffffffffff16906020019091905050611605565b604051808060200183815260200182810382528481815460018160011615610100020316600290048152602001915080546001816001161561010002031660029004801561085d5780601f106108325761010080835404028352916020019161085d565b820191906000526020600020905b81548152906001019060200180831161084057829003601f168201915b5050935050505060405180910390f35b341561087857600080fd5b6108a4600480803573ffffffffffffffffffffffffffffffffffffffff16906020019091905050611628565b005b6007818154811015156108b557fe5b90600052602060002090016000915054906101000a900473ffffffffffffffffffffffffffffffffffffffff1681565b80600560003373ffffffffffffffffffffffffffffffffffffffff1673ffffffffffffffffffffffffffffffffffffffff168152602001908152602001600020600101600082825401925050819055508060026000828254019250508190555080600160008282540392505081905550346004600082825401925050819055507ffe1367e498701f2dfab80a3d41740d46fd7cba533430e611917f0f3df823279a600560003373ffffffffffffffffffffffffffffffffffffffff1673ffffffffffffffffffffffffffffffffffffffff168152602001908152602001600020600101546040518082815260200191505060405180910390a150565b6000600660003373ffffffffffffffffffffffffffffffffffffffff1673ffffffffffffffffffffffffffffffffffffffff168152602001908152602001600020905082816000019080519060200190610a3c92919061177d565b5060058160020160008282540392505081905550600560003373ffffffffffffffffffffffffffffffffffffffff1673ffffffffffffffffffffffffffffffffffffffff168152602001908152602001600020600001816001019080546001816001161561010002031660029004610ab59291906117fd565b50338160030160006101000a81548173ffffffffffffffffffffffffffffffffffffffff021916908373ffffffffffffffffffffffffffffffffffffffff16021790555081816004019080519060200190610b1192919061177d565b50600160078054806001018281610b289190611884565b9160005260206000209001600033909190916101000a81548173ffffffffffffffffffffffffffffffffffffffff021916908373ffffffffffffffffffffffffffffffffffffffff160217905550505060058060003373ffffffffffffffffffffffffffffffffffffffff1673ffffffffffffffffffffffffffffffffffffffff168152602001908152602001600020600101600082825403925050819055507fbdf2d095118b35ed77302e18d5db303371ab8e69762dea74b3b96b8bddc781f98383604051808060200180602001838103835285818151815260200191508051906020019080838360005b83811015610c2f578082015181840152602081019050610c14565b50505050905090810190601f168015610c5c5780820380516001836020036101000a031916815260200191505b50838103825284818151815260200191508051906020019080838360005b83811015610c95578082015181840152602081019050610c7a565b50505050905090810190601f168015610cc25780820380516001836020036101000a031916815260200191505b5094505050505060405180910390a1505050565b600360009054906101000a900473ffffffffffffffffffffffffffffffffffffffff1673ffffffffffffffffffffffffffffffffffffffff163373ffffffffffffffffffffffffffffffffffffffff161415610d6757600360009054906101000a900473ffffffffffffffffffffffffffffffffffffffff1673ffffffffffffffffffffffffffffffffffffffff16ff5b565b610d716118b0565b6007805480602002602001604051908101604052809291908181526020018280548015610df357602002820191906000526020600020905b8160009054906101000a900473ffffffffffffffffffffffffffffffffffffffff1673ffffffffffffffffffffffffffffffffffffffff1681526020019060010190808311610da9575b5050505050905090565b80600660008473ffffffffffffffffffffffffffffffffffffffff1673ffffffffffffffffffffffffffffffffffffffff1681526020019081526020016000206002016000828254019250508190555080600560008473ffffffffffffffffffffffffffffffffffffffff1673ffffffffffffffffffffffffffffffffffffffff1681526020019081526020016000206001016000828254019250508190555080600560003373ffffffffffffffffffffffffffffffffffffffff1673ffffffffffffffffffffffffffffffffffffffff168152602001908152602001600020600101600082825403925050819055507f050cbab7fede968f252efba864c75069d68302f756e7f9c0093fb37faf2ba79b600660008473ffffffffffffffffffffffffffffffffffffffff1673ffffffffffffffffffffffffffffffffffffffff16815260200190815260200160002060020154600560008573ffffffffffffffffffffffffffffffffffffffff1673ffffffffffffffffffffffffffffffffffffffff16815260200190815260200160002060000184600560008773ffffffffffffffffffffffffffffffffffffffff1673ffffffffffffffffffffffffffffffffffffffff16815260200190815260200160002060010154600560003373ffffffffffffffffffffffffffffffffffffffff1673ffffffffffffffffffffffffffffffffffffffff16815260200190815260200160002060000133600560003373ffffffffffffffffffffffffffffffffffffffff1673ffffffffffffffffffffffffffffffffffffffff1681526020019081526020016000206001015460405180888152602001806020018773ffffffffffffffffffffffffffffffffffffffff1673ffffffffffffffffffffffffffffffffffffffff168152602001868152602001806020018573ffffffffffffffffffffffffffffffffffffffff1673ffffffffffffffffffffffffffffffffffffffff1681526020018481526020018381038352898181546001816001161561010002031660029004815260200191508054600181600116156101000203166002900480156111605780601f1061113557610100808354040283529160200191611160565b820191906000526020600020905b81548152906001019060200180831161114357829003601f168201915b50508381038252868181546001816001161561010002031660029004815260200191508054600181600116156101000203166002900480156111e35780601f106111b8576101008083540402835291602001916111e3565b820191906000526020600020905b8154815290600101906020018083116111c657829003601f168201915b5050995050505050505050505060405180910390a15050565b6000600560003373ffffffffffffffffffffffffffffffffffffffff1673ffffffffffffffffffffffffffffffffffffffff16815260200190815260200160002090508181600001908051906020019061125792919061177d565b50600081600101819055507f66ab3fea2083d9ba15d99b595186fe7fc18e6eba393c0fc056f420e96c3caa44826040518080602001828103825283818151815260200191508051906020019080838360005b838110156112c45780820151818401526020810190506112a9565b50505050905090810190601f1680156112f15780820380516001836020036101000a031916815260200191505b509250505060405180910390a15050565b6006602052806000526040600020600091509050806000019080600101908060020154908060030160009054906101000a900473ffffffffffffffffffffffffffffffffffffffff169080600401905085565b61135d6118c4565b60006113676118c4565b600080600560003373ffffffffffffffffffffffffffffffffffffffff1673ffffffffffffffffffffffffffffffffffffffff168152602001908152602001600020600001600560003373ffffffffffffffffffffffffffffffffffffffff1673ffffffffffffffffffffffffffffffffffffffff16815260200190815260200160002060010154600660003373ffffffffffffffffffffffffffffffffffffffff1673ffffffffffffffffffffffffffffffffffffffff168152602001908152602001600020600001600660003373ffffffffffffffffffffffffffffffffffffffff1673ffffffffffffffffffffffffffffffffffffffff1681526020019081526020016000206002015433848054600181600116156101000203166002900480601f01602080910402602001604051908101604052809291908181526020018280546001816001161561010002031660029004801561150a5780601f106114df5761010080835404028352916020019161150a565b820191906000526020600020905b8154815290600101906020018083116114ed57829003601f168201915b50505050509450828054600181600116156101000203166002900480601f0160208091040260200160405190810160405280929190818152602001828054600181600116156101000203166002900480156115a65780601f1061157b576101008083540402835291602001916115a6565b820191906000526020600020905b81548152906001019060200180831161158957829003601f168201915b50505050509250945094509450945094509091929394565b6000809054906101000a900473ffffffffffffffffffffffffffffffffffffffff1681565b6115ec846111fc565b6115f5826108e5565b6115ff83826109e1565b50505050565b600560205280600052604060002060009150905080600001908060010154905082565b6000809054906101000a900473ffffffffffffffffffffffffffffffffffffffff1673ffffffffffffffffffffffffffffffffffffffff163373ffffffffffffffffffffffffffffffffffffffff1614151561168357600080fd5b600073ffffffffffffffffffffffffffffffffffffffff168173ffffffffffffffffffffffffffffffffffffffff16141515156116bf57600080fd5b8073ffffffffffffffffffffffffffffffffffffffff166000809054906101000a900473ffffffffffffffffffffffffffffffffffffffff1673ffffffffffffffffffffffffffffffffffffffff167f8be0079c531659141344cd1fd0a4f28419497f9722a3daafe3b4186f6b6457e060405160405180910390a3806000806101000a81548173ffffffffffffffffffffffffffffffffffffffff021916908373ffffffffffffffffffffffffffffffffffffffff16021790555050565b828054600181600116156101000203166002900490600052602060002090601f016020900481019282601f106117be57805160ff19168380011785556117ec565b828001600101855582156117ec579182015b828111156117eb5782518255916020019190600101906117d0565b5b5090506117f991906118d8565b5090565b828054600181600116156101000203166002900490600052602060002090601f016020900481019282601f106118365780548555611873565b8280016001018555821561187357600052602060002091601f016020900482015b82811115611872578254825591600101919060010190611857565b5b50905061188091906118d8565b5090565b8154818355818115116118ab578183600052602060002091820191016118aa91906118d8565b5b505050565b602060405190810160405280600081525090565b602060405190810160405280600081525090565b6118fa91905b808211156118f65760008160009055506001016118de565b5090565b905600a165627a7a7230582064bb6b709ff92ac45497816404687cef18fdf549a72690d5f4e9f3de1ab516490029",
  "source": "pragma solidity ^0.4.18;\n\nimport 'zeppelin-solidity/contracts/ownership/Ownable.sol';\n\ncontract CapCoin is Ownable {\n\n  event NewUser(string name);\n  event BoughtTokens(uint coinBalance);\n  event CreatedPost(string url, string caption);\n  event LikedPost(int lotteryAmount, string posterName,\n    address poster, uint posterCoinbalance, string likerName,\n    address liker, uint likerCoinbalance);\n\n  uint coinSupply = 1000000;\n  uint coinsBought = 0;\n  address owner;\n  uint value;\n\n  function CapCoin () {\n    owner = msg.sender;\n  }\n\n  struct User {\n    string name;\n    uint coinBalance;\n  }\n\n  struct Post {\n    string url;\n    string userName;\n    int lotteryAmount;\n    address owner;\n    string caption;\n  }\n\n  mapping (address => User) public addressToUser;\n  mapping (address => Post) public addressToPost;\n  address[] public posts;\n\n  function createUser(string name) public {\n    var user = addressToUser[msg.sender];\n    user.name = name;\n    user.coinBalance = 0;\n    NewUser(name);\n  }\n\n  function getUser() public view returns (string, uint, string, int, address) {\n    return (addressToUser[msg.sender].name,\n      addressToUser[msg.sender].coinBalance,\n      addressToPost[msg.sender].url,\n      addressToPost[msg.sender].lotteryAmount,\n      msg.sender);\n  }\n\n  // need to add economics\n  function buyTokens(uint amount) payable public {\n    addressToUser[msg.sender].coinBalance += amount;\n    coinsBought += amount;\n    coinSupply -= amount;\n    value += msg.value;\n    BoughtTokens(addressToUser[msg.sender].coinBalance);\n  }\n\n  function createPost(string url, string caption) public {\n    // 5 coins per post\n    var post = addressToPost[msg.sender];\n    post.url = url;\n    post.lotteryAmount -= 5;\n    post.userName = addressToUser[msg.sender].name;\n    post.owner = msg.sender;\n    post.caption = caption;\n\n    posts.push(msg.sender) -1;\n    addressToUser[msg.sender].coinBalance -= 5;\n    CreatedPost(url, caption);\n  }\n\n  function likePost(address post, uint amount) public {\n    addressToPost[post].lotteryAmount += int(amount);\n    addressToUser[post].coinBalance += amount;\n    addressToUser[msg.sender].coinBalance -= amount;\n    LikedPost(addressToPost[post].lotteryAmount,\n      addressToUser[post].name, post, addressToUser[post].coinBalance,\n      addressToUser[msg.sender].name, msg.sender, addressToUser[msg.sender].coinBalance);\n  }\n\n  function getPosts() public view returns (address[]) {\n      return posts;\n  }\n\n  function seed(string name, string url, uint amount, string caption) public {\n      createUser(name);\n      buyTokens(amount);\n      createPost(url, caption);\n  }\n\n    function kill() {\n      if (msg.sender == owner) {\n        selfdestruct(owner);\n      }\n    }\n\n  function() payable {}\n}\n",
  "sourcePath": "/Users/schwartzz8990/Dropbox/fullstack/capCoin/contracts/CapCoin.sol",
  "compiler": {
    "name": "solc",
    "version": "0.4.18+commit.9cf6e910.Emscripten.clang"
  },
  "schemaVersion": "1.0.1",
  "updatedAt": "2018-01-20T19:30:59.029Z"
}