{
  "contractName": "CapCoin",
  "abi": [
    {
      "constant": true,
      "inputs": [],
      "name": "getUsers",
      "outputs": [
        {
          "name": "",
          "type": "address[]"
        }
      ],
      "payable": false,
      "stateMutability": "view",
      "type": "function"
    },
    {
      "constant": true,
      "inputs": [
        {
          "name": "",
          "type": "uint256"
        }
      ],
      "name": "posts",
      "outputs": [
        {
          "name": "",
          "type": "address"
        }
      ],
      "payable": false,
      "stateMutability": "view",
      "type": "function"
    },
    {
      "constant": false,
      "inputs": [
        {
          "name": "name",
          "type": "string"
        },
        {
          "name": "url",
          "type": "string"
        },
        {
          "name": "amount",
          "type": "uint256"
        }
      ],
      "name": "seed",
      "outputs": [],
      "payable": false,
      "stateMutability": "nonpayable",
      "type": "function"
    },
    {
      "constant": false,
      "inputs": [
        {
          "name": "amount",
          "type": "uint256"
        }
      ],
      "name": "buyTokens",
      "outputs": [],
      "payable": false,
      "stateMutability": "nonpayable",
      "type": "function"
    },
    {
      "constant": true,
      "inputs": [
        {
          "name": "",
          "type": "uint256"
        }
      ],
      "name": "users",
      "outputs": [
        {
          "name": "",
          "type": "address"
        }
      ],
      "payable": false,
      "stateMutability": "view",
      "type": "function"
    },
    {
      "constant": true,
      "inputs": [],
      "name": "getPosts",
      "outputs": [
        {
          "name": "",
          "type": "address[]"
        }
      ],
      "payable": false,
      "stateMutability": "view",
      "type": "function"
    },
    {
      "constant": false,
      "inputs": [
        {
          "name": "name",
          "type": "string"
        }
      ],
      "name": "createUser",
      "outputs": [],
      "payable": false,
      "stateMutability": "nonpayable",
      "type": "function"
    },
    {
      "constant": true,
      "inputs": [
        {
          "name": "",
          "type": "address"
        }
      ],
      "name": "addressToPost",
      "outputs": [
        {
          "name": "url",
          "type": "string"
        },
        {
          "name": "userName",
          "type": "string"
        },
        {
          "name": "lotteryAmount",
          "type": "uint256"
        }
      ],
      "payable": false,
      "stateMutability": "view",
      "type": "function"
    },
    {
      "constant": true,
      "inputs": [],
      "name": "getUser",
      "outputs": [
        {
          "name": "",
          "type": "string"
        },
        {
          "name": "",
          "type": "uint256"
        },
        {
          "name": "",
          "type": "string"
        },
        {
          "name": "",
          "type": "uint256"
        },
        {
          "name": "",
          "type": "address"
        }
      ],
      "payable": false,
      "stateMutability": "view",
      "type": "function"
    },
    {
      "constant": false,
      "inputs": [
        {
          "name": "url",
          "type": "string"
        }
      ],
      "name": "createPost",
      "outputs": [],
      "payable": false,
      "stateMutability": "nonpayable",
      "type": "function"
    },
    {
      "constant": true,
      "inputs": [
        {
          "name": "",
          "type": "address"
        }
      ],
      "name": "addressToUser",
      "outputs": [
        {
          "name": "name",
          "type": "string"
        },
        {
          "name": "coinBalance",
          "type": "uint256"
        },
        {
          "name": "postNum",
          "type": "uint256"
        }
      ],
      "payable": false,
      "stateMutability": "view",
      "type": "function"
    },
    {
      "inputs": [],
      "payable": false,
      "stateMutability": "nonpayable",
      "type": "constructor"
    },
    {
      "payable": true,
      "stateMutability": "payable",
      "type": "fallback"
    },
    {
      "anonymous": false,
      "inputs": [
        {
          "indexed": false,
          "name": "name",
          "type": "string"
        }
      ],
      "name": "NewUser",
      "type": "event"
    },
    {
      "anonymous": false,
      "inputs": [
        {
          "indexed": false,
          "name": "coinBalance",
          "type": "uint256"
        }
      ],
      "name": "BoughtTokens",
      "type": "event"
    },
    {
      "anonymous": false,
      "inputs": [
        {
          "indexed": false,
          "name": "url",
          "type": "string"
        }
      ],
      "name": "CreatedPost",
      "type": "event"
    }
  ],
  "bytecode": "0x6060604052620f42406000556000600155341561001b57600080fd5b60016002819055506111ed806100326000396000f3006060604052600436106100ae576000357c0100000000000000000000000000000000000000000000000000000000900463ffffffff168062ce8e3e146100b05780630b1e7f831461011a57806326ec928f1461017d5780633610724e14610226578063365b98b21461024957806341f3004a146102ac578063507ffba514610316578063763f17c414610373578063832880e7146104d2578063c7303c611461060d578063edf538861461066a575b005b34156100bb57600080fd5b6100c3610747565b6040518080602001828103825283818151815260200191508051906020019060200280838360005b838110156101065780820151818401526020810190506100eb565b505050509050019250505060405180910390f35b341561012557600080fd5b61013b60048080359060200190919050506107db565b604051808273ffffffffffffffffffffffffffffffffffffffff1673ffffffffffffffffffffffffffffffffffffffff16815260200191505060405180910390f35b341561018857600080fd5b610224600480803590602001908201803590602001908080601f0160208091040260200160405190810160405280939291908181526020018383808284378201915050505050509190803590602001908201803590602001908080601f0160208091040260200160405190810160405280939291908181526020018383808284378201915050505050509190803590602001909190505061081a565b005b341561023157600080fd5b610247600480803590602001909190505061083a565b005b341561025457600080fd5b61026a6004808035906020019091905050610925565b604051808273ffffffffffffffffffffffffffffffffffffffff1673ffffffffffffffffffffffffffffffffffffffff16815260200191505060405180910390f35b34156102b757600080fd5b6102bf610964565b6040518080602001828103825283818151815260200191508051906020019060200280838360005b838110156103025780820151818401526020810190506102e7565b505050509050019250505060405180910390f35b341561032157600080fd5b610371600480803590602001908201803590602001908080601f016020809104026020016040519081016040528093929190818152602001838380828437820191505050505050919050506109f8565b005b341561037e57600080fd5b6103aa600480803573ffffffffffffffffffffffffffffffffffffffff16906020019091905050610b64565b60405180806020018060200184815260200183810383528681815460018160011615610100020316600290048152602001915080546001816001161561010002031660029004801561043d5780601f106104125761010080835404028352916020019161043d565b820191906000526020600020905b81548152906001019060200180831161042057829003601f168201915b50508381038252858181546001816001161561010002031660029004815260200191508054600181600116156101000203166002900480156104c05780601f10610495576101008083540402835291602001916104c0565b820191906000526020600020905b8154815290600101906020018083116104a357829003601f168201915b50509550505050505060405180910390f35b34156104dd57600080fd5b6104e5610b8c565b6040518080602001868152602001806020018581526020018473ffffffffffffffffffffffffffffffffffffffff1673ffffffffffffffffffffffffffffffffffffffff168152602001838103835288818151815260200191508051906020019080838360005b8381101561056757808201518184015260208101905061054c565b50505050905090810190601f1680156105945780820380516001836020036101000a031916815260200191505b50838103825286818151815260200191508051906020019080838360005b838110156105cd5780820151818401526020810190506105b2565b50505050905090810190601f1680156105fa5780820380516001836020036101000a031916815260200191505b5097505050505050505060405180910390f35b341561061857600080fd5b610668600480803590602001908201803590602001908080601f01602080910402602001604051908101604052809392919081815260200183838082843782019150505050505091905050610df5565b005b341561067557600080fd5b6106a1600480803573ffffffffffffffffffffffffffffffffffffffff16906020019091905050611018565b60405180806020018481526020018381526020018281038252858181546001816001161561010002031660029004815260200191508054600181600116156101000203166002900480156107365780601f1061070b57610100808354040283529160200191610736565b820191906000526020600020905b81548152906001019060200180831161071957829003601f168201915b505094505050505060405180910390f35b61074f611041565b60058054806020026020016040519081016040528092919081815260200182805480156107d157602002820191906000526020600020905b8160009054906101000a900473ffffffffffffffffffffffffffffffffffffffff1673ffffffffffffffffffffffffffffffffffffffff1681526020019060010190808311610787575b5050505050905090565b6006818154811015156107ea57fe5b90600052602060002090016000915054906101000a900473ffffffffffffffffffffffffffffffffffffffff1681565b610823836109f8565b61082c8161083a565b61083582610df5565b505050565b80600360003373ffffffffffffffffffffffffffffffffffffffff1673ffffffffffffffffffffffffffffffffffffffff16815260200190815260200160002060010160008282540192505081905550806001600082825401925050819055508060008082825403925050819055507ffe1367e498701f2dfab80a3d41740d46fd7cba533430e611917f0f3df823279a600360003373ffffffffffffffffffffffffffffffffffffffff1673ffffffffffffffffffffffffffffffffffffffff168152602001908152602001600020600101546040518082815260200191505060405180910390a150565b60058181548110151561093457fe5b90600052602060002090016000915054906101000a900473ffffffffffffffffffffffffffffffffffffffff1681565b61096c611041565b60068054806020026020016040519081016040528092919081815260200182805480156109ee57602002820191906000526020600020905b8160009054906101000a900473ffffffffffffffffffffffffffffffffffffffff1673ffffffffffffffffffffffffffffffffffffffff16815260200190600101908083116109a4575b5050505050905090565b6000600360003373ffffffffffffffffffffffffffffffffffffffff1673ffffffffffffffffffffffffffffffffffffffff168152602001908152602001600020905081816000019080519060200190610a53929190611055565b5060008160010181905550600160058054806001018281610a7491906110d5565b9160005260206000209001600033909190916101000a81548173ffffffffffffffffffffffffffffffffffffffff021916908373ffffffffffffffffffffffffffffffffffffffff16021790555050507f66ab3fea2083d9ba15d99b595186fe7fc18e6eba393c0fc056f420e96c3caa44826040518080602001828103825283818151815260200191508051906020019080838360005b83811015610b26578082015181840152602081019050610b0b565b50505050905090810190601f168015610b535780820380516001836020036101000a031916815260200191505b509250505060405180910390a15050565b6004602052806000526040600020600091509050806000019080600101908060020154905083565b610b94611101565b6000610b9e611101565b600080600360003373ffffffffffffffffffffffffffffffffffffffff1673ffffffffffffffffffffffffffffffffffffffff168152602001908152602001600020600001600360003373ffffffffffffffffffffffffffffffffffffffff1673ffffffffffffffffffffffffffffffffffffffff16815260200190815260200160002060010154600460003373ffffffffffffffffffffffffffffffffffffffff1673ffffffffffffffffffffffffffffffffffffffff168152602001908152602001600020600001600460003373ffffffffffffffffffffffffffffffffffffffff1673ffffffffffffffffffffffffffffffffffffffff1681526020019081526020016000206002015433848054600181600116156101000203166002900480601f016020809104026020016040519081016040528092919081815260200182805460018160011615610100020316600290048015610d415780601f10610d1657610100808354040283529160200191610d41565b820191906000526020600020905b815481529060010190602001808311610d2457829003601f168201915b50505050509450828054600181600116156101000203166002900480601f016020809104026020016040519081016040528092919081815260200182805460018160011615610100020316600290048015610ddd5780601f10610db257610100808354040283529160200191610ddd565b820191906000526020600020905b815481529060010190602001808311610dc057829003601f168201915b50505050509250945094509450945094509091929394565b6000600460003373ffffffffffffffffffffffffffffffffffffffff1673ffffffffffffffffffffffffffffffffffffffff168152602001908152602001600020905081816000019080519060200190610e50929190611055565b5060058160020181905550600360003373ffffffffffffffffffffffffffffffffffffffff1673ffffffffffffffffffffffffffffffffffffffff168152602001908152602001600020600001816001019080546001816001161561010002031660029004610ec0929190611115565b50600160068054806001018281610ed791906110d5565b9160005260206000209001600033909190916101000a81548173ffffffffffffffffffffffffffffffffffffffff021916908373ffffffffffffffffffffffffffffffffffffffff16021790555050506005600360003373ffffffffffffffffffffffffffffffffffffffff1673ffffffffffffffffffffffffffffffffffffffff168152602001908152602001600020600101600082825403925050819055507f3b6c110dfadc879ec2bbc1dc567f9065fd5ea5846bce75fddba0f60ffcc79fac826040518080602001828103825283818151815260200191508051906020019080838360005b83811015610fda578082015181840152602081019050610fbf565b50505050905090810190601f1680156110075780820380516001836020036101000a031916815260200191505b509250505060405180910390a15050565b600360205280600052604060002060009150905080600001908060010154908060020154905083565b602060405190810160405280600081525090565b828054600181600116156101000203166002900490600052602060002090601f016020900481019282601f1061109657805160ff19168380011785556110c4565b828001600101855582156110c4579182015b828111156110c35782518255916020019190600101906110a8565b5b5090506110d1919061119c565b5090565b8154818355818115116110fc578183600052602060002091820191016110fb919061119c565b5b505050565b602060405190810160405280600081525090565b828054600181600116156101000203166002900490600052602060002090601f016020900481019282601f1061114e578054855561118b565b8280016001018555821561118b57600052602060002091601f016020900482015b8281111561118a57825482559160010191906001019061116f565b5b509050611198919061119c565b5090565b6111be91905b808211156111ba5760008160009055506001016111a2565b5090565b905600a165627a7a72305820407afc28e4631aaa2922655150022efb7a20c4f0f71119d92d705b82d3217f560029",
  "source": "pragma solidity ^0.4.18;\n\ncontract CapCoin {\n\n  event NewUser(string name);\n  event BoughtTokens(uint coinBalance);\n  event CreatedPost(string url);\n\n  uint coinSupply = 1000000;\n  uint coinsBought = 0;\n  uint contractNum;\n\n  function CapCoin () {\n    contractNum = 1;\n  }\n\n  struct User {\n    string name;\n    uint coinBalance;\n    uint postNum;\n  }\n\n  struct Post {\n    string url;\n    string userName;\n    uint lotteryAmount;\n    string[] captions;\n  }\n\n  mapping (address => User) public addressToUser;\n  mapping (address => Post) public addressToPost;\n  address[] public users;\n  address[] public posts;\n\n  function createUser(string name) public {\n    var user = addressToUser[msg.sender];\n\n    user.name = name;\n    user.coinBalance = 0;\n\n    users.push(msg.sender) -1;\n    NewUser(name);\n  }\n\n  function getUsers() public view returns (address[]) {\n    return users;\n  }\n\n  function getUser() public view returns (string, uint, string, uint, address) {\n    return (addressToUser[msg.sender].name,\n      addressToUser[msg.sender].coinBalance,\n      addressToPost[msg.sender].url,\n      addressToPost[msg.sender].lotteryAmount,\n      msg.sender);\n  }\n\n  function buyTokens(uint amount) public {\n    addressToUser[msg.sender].coinBalance += amount;\n    coinsBought += amount;\n    coinSupply -= amount;\n    BoughtTokens(addressToUser[msg.sender].coinBalance);\n  }\n\n  function createPost(string url) public {\n    // 5 coins per post\n    var post = addressToPost[msg.sender];\n    post.url = url;\n    post.lotteryAmount = 5;\n    post.userName = addressToUser[msg.sender].name;\n\n    posts.push(msg.sender) -1;\n    addressToUser[msg.sender].coinBalance -= 5;\n    CreatedPost(url);\n  }\n\n  function getPosts() public view returns (address[]) {\n      return posts;\n  }\n\n  function seed(string name, string url, uint amount) public {\n      createUser(name);\n      buyTokens(amount);\n      createPost(url);\n  }\n\n  function() internal payable {}\n}\n",
  "sourcePath": "/Users/schwartzz8990/Dropbox/fullstack/capCoin/contracts/CapCoin.sol",
  "compiler": {
    "name": "solc",
    "version": "0.4.18+commit.9cf6e910.Emscripten.clang"
  },
  "schemaVersion": "1.0.1",
  "updatedAt": "2018-01-19T16:26:08.225Z"
}