{
  "contractName": "CapCoin",
  "abi": [
    {
      "constant": true,
      "inputs": [
        {
          "name": "",
          "type": "uint256"
        }
      ],
      "name": "userToOwner",
      "outputs": [
        {
          "name": "",
          "type": "address"
        }
      ],
      "payable": false,
      "stateMutability": "view",
      "type": "function"
    },
    {
      "constant": true,
      "inputs": [
        {
          "name": "",
          "type": "uint256"
        }
      ],
      "name": "users",
      "outputs": [
        {
          "name": "name",
          "type": "string"
        },
        {
          "name": "coinBalance",
          "type": "uint256"
        }
      ],
      "payable": false,
      "stateMutability": "view",
      "type": "function"
    },
    {
      "constant": false,
      "inputs": [
        {
          "name": "name",
          "type": "string"
        }
      ],
      "name": "createUser",
      "outputs": [],
      "payable": false,
      "stateMutability": "nonpayable",
      "type": "function"
    },
    {
      "anonymous": false,
      "inputs": [
        {
          "indexed": false,
          "name": "userId",
          "type": "uint256"
        },
        {
          "indexed": false,
          "name": "name",
          "type": "string"
        }
      ],
      "name": "NewUser",
      "type": "event"
    }
  ],
  "bytecode": "0x6060604052620f42406000556000600155341561001b57600080fd5b6105298061002a6000396000f300606060405260043610610057576000357c0100000000000000000000000000000000000000000000000000000000900463ffffffff1680630d7b081c1461005c578063365b98b2146100bf578063507ffba51461017f575b600080fd5b341561006757600080fd5b61007d60048080359060200190919050506101dc565b604051808273ffffffffffffffffffffffffffffffffffffffff1673ffffffffffffffffffffffffffffffffffffffff16815260200191505060405180910390f35b34156100ca57600080fd5b6100e0600480803590602001909190505061020f565b604051808060200183815260200182810382528481815460018160011615610100020316600290048152602001915080546001816001161561010002031660029004801561016f5780601f106101445761010080835404028352916020019161016f565b820191906000526020600020905b81548152906001019060200180831161015257829003601f168201915b5050935050505060405180910390f35b341561018a57600080fd5b6101da600480803590602001908201803590602001908080601f01602080910402602001604051908101604052809392919081815260200183838082843782019150505050505091905050610241565b005b60036020528060005260406000206000915054906101000a900473ffffffffffffffffffffffffffffffffffffffff1681565b60028181548110151561021e57fe5b906000526020600020906002020160009150905080600001908060010154905082565b60006002805480600101828161025791906103a7565b91600052602060002090600202016000604080519081016040528086815260200160008152509091909150600082015181600001908051906020019061029e9291906103d9565b506020820151816001015550509050336003600083815260200190815260200160002060006101000a81548173ffffffffffffffffffffffffffffffffffffffff021916908373ffffffffffffffffffffffffffffffffffffffff1602179055507f3a52155893b2ec6509fcf7e2ecd1f6ee597aa43c6dbb274922f27e856176428181836040518083815260200180602001828103825283818151815260200191508051906020019080838360005b8381101561036857808201518184015260208101905061034d565b50505050905090810190601f1680156103955780820380516001836020036101000a031916815260200191505b50935050505060405180910390a15050565b8154818355818115116103d4576002028160020283600052602060002091820191016103d39190610459565b5b505050565b828054600181600116156101000203166002900490600052602060002090601f016020900481019282601f1061041a57805160ff1916838001178555610448565b82800160010185558215610448579182015b8281111561044757825182559160200191906001019061042c565b5b5090506104559190610490565b5090565b61048d91905b80821115610489576000808201600061047891906104b5565b60018201600090555060020161045f565b5090565b90565b6104b291905b808211156104ae576000816000905550600101610496565b5090565b90565b50805460018160011615610100020316600290046000825580601f106104db57506104fa565b601f0160209004906000526020600020908101906104f99190610490565b5b505600a165627a7a72305820588dea1fd7abcb3328e92b2ffce6ba9432855edc87a969e10f2dad6b013c345e0029",
  "source": "pragma solidity ^0.4.18;\n\ncontract CapCoin {\n\n  event NewUser(uint userId, string name);\n\n  uint coinSupply = 1000000;\n  uint coinsBought = 0;\n\n  struct User {\n    string name;\n    uint coinBalance;\n  }\n\n  User[] public users;\n\n  mapping (uint => address) public userToOwner;\n\n  function createUser(string name) public {\n    uint id = users.push(User(name, 0));\n    userToOwner[id] = msg.sender;\n    NewUser(id, name);\n  }\n}\n",
  "sourcePath": "/Users/schwartzz8990/Dropbox/fullstack/capCoin/contracts/CapCoin.sol",
  "compiler": {
    "name": "solc",
    "version": "0.4.18+commit.9cf6e910.Emscripten.clang"
  },
  "schemaVersion": "1.0.1",
  "updatedAt": "2018-01-18T03:22:10.403Z"
}