{
  "contractName": "CapCoin",
  "abi": [
    {
      "constant": true,
      "inputs": [
        {
          "name": "",
          "type": "uint256"
        }
      ],
      "name": "userToOwner",
      "outputs": [
        {
          "name": "",
          "type": "address"
        }
      ],
      "payable": false,
      "stateMutability": "view",
      "type": "function"
    },
    {
      "constant": true,
      "inputs": [
        {
          "name": "",
          "type": "uint256"
        }
      ],
      "name": "users",
      "outputs": [
        {
          "name": "name",
          "type": "string"
        },
        {
          "name": "coinBalance",
          "type": "uint256"
        }
      ],
      "payable": false,
      "stateMutability": "view",
      "type": "function"
    },
    {
      "constant": false,
      "inputs": [
        {
          "name": "name",
          "type": "string"
        }
      ],
      "name": "createUser",
      "outputs": [],
      "payable": false,
      "stateMutability": "nonpayable",
      "type": "function"
    }
  ],
  "bytecode": "0x6060604052620f42406000556000600155341561001b57600080fd5b6104858061002a6000396000f300606060405260043610610057576000357c0100000000000000000000000000000000000000000000000000000000900463ffffffff1680630d7b081c1461005c578063365b98b2146100bf578063507ffba51461017f575b600080fd5b341561006757600080fd5b61007d60048080359060200190919050506101dc565b604051808273ffffffffffffffffffffffffffffffffffffffff1673ffffffffffffffffffffffffffffffffffffffff16815260200191505060405180910390f35b34156100ca57600080fd5b6100e0600480803590602001909190505061020f565b604051808060200183815260200182810382528481815460018160011615610100020316600290048152602001915080546001816001161561010002031660029004801561016f5780601f106101445761010080835404028352916020019161016f565b820191906000526020600020905b81548152906001019060200180831161015257829003601f168201915b5050935050505060405180910390f35b341561018a57600080fd5b6101da600480803590602001908201803590602001908080601f01602080910402602001604051908101604052809392919081815260200183838082843782019150505050505091905050610241565b005b60036020528060005260406000206000915054906101000a900473ffffffffffffffffffffffffffffffffffffffff1681565b60028181548110151561021e57fe5b906000526020600020906002020160009150905080600001908060010154905082565b6000600280548060010182816102579190610303565b91600052602060002090600202016000604080519081016040528086815260200160008152509091909150600082015181600001908051906020019061029e929190610335565b506020820151816001015550509050336003600083815260200190815260200160002060006101000a81548173ffffffffffffffffffffffffffffffffffffffff021916908373ffffffffffffffffffffffffffffffffffffffff1602179055505050565b8154818355818115116103305760020281600202836000526020600020918201910161032f91906103b5565b5b505050565b828054600181600116156101000203166002900490600052602060002090601f016020900481019282601f1061037657805160ff19168380011785556103a4565b828001600101855582156103a4579182015b828111156103a3578251825591602001919060010190610388565b5b5090506103b191906103ec565b5090565b6103e991905b808211156103e557600080820160006103d49190610411565b6001820160009055506002016103bb565b5090565b90565b61040e91905b8082111561040a5760008160009055506001016103f2565b5090565b90565b50805460018160011615610100020316600290046000825580601f106104375750610456565b601f01602090049060005260206000209081019061045591906103ec565b5b505600a165627a7a72305820155ea0bbd2389bf2016af04fbd6c078603d46ab1dd7078e55b5266c78e9b598e0029",
  "source": "pragma solidity ^0.4.18;\n\ncontract CapCoin {\n  uint coinSupply = 1000000;\n  uint coinsBought = 0;\n\n  // Post to owner mapping\n  // caption to owner mapping\n\n  struct User {\n    string name;\n    uint coinBalance;\n  }\n\n  User[] public users;\n\n  mapping (uint => address) public userToOwner;\n\n  function createUser(string name) public {\n    uint id = users.push(User(name, 0));\n    userToOwner[id] = msg.sender;\n  }\n\n}\n",
  "sourcePath": "/Users/schwartzz8990/Dropbox/fullstack/capCoin/contracts/CapCoin.sol",
  "compiler": {
    "name": "solc",
    "version": "0.4.18+commit.9cf6e910.Emscripten.clang"
  },
  "schemaVersion": "1.0.1",
  "updatedAt": "2018-01-17T20:24:30.798Z"
}