{
  "contractName": "CapCoin",
  "abi": [
    {
      "constant": true,
      "inputs": [
        {
          "name": "",
          "type": "uint256"
        }
      ],
      "name": "posts",
      "outputs": [
        {
          "name": "",
          "type": "address"
        }
      ],
      "payable": false,
      "stateMutability": "view",
      "type": "function"
    },
    {
      "constant": false,
      "inputs": [
        {
          "name": "name",
          "type": "string"
        },
        {
          "name": "url",
          "type": "string"
        },
        {
          "name": "amount",
          "type": "uint256"
        }
      ],
      "name": "seed",
      "outputs": [],
      "payable": false,
      "stateMutability": "nonpayable",
      "type": "function"
    },
    {
      "constant": false,
      "inputs": [
        {
          "name": "amount",
          "type": "uint256"
        }
      ],
      "name": "buyTokens",
      "outputs": [],
      "payable": true,
      "stateMutability": "payable",
      "type": "function"
    },
    {
      "constant": false,
      "inputs": [],
      "name": "kill",
      "outputs": [],
      "payable": false,
      "stateMutability": "nonpayable",
      "type": "function"
    },
    {
      "constant": true,
      "inputs": [],
      "name": "getPosts",
      "outputs": [
        {
          "name": "",
          "type": "address[]"
        }
      ],
      "payable": false,
      "stateMutability": "view",
      "type": "function"
    },
    {
      "constant": false,
      "inputs": [
        {
          "name": "post",
          "type": "address"
        },
        {
          "name": "amount",
          "type": "uint256"
        }
      ],
      "name": "likePost",
      "outputs": [],
      "payable": false,
      "stateMutability": "nonpayable",
      "type": "function"
    },
    {
      "constant": false,
      "inputs": [
        {
          "name": "name",
          "type": "string"
        }
      ],
      "name": "createUser",
      "outputs": [],
      "payable": false,
      "stateMutability": "nonpayable",
      "type": "function"
    },
    {
      "constant": true,
      "inputs": [
        {
          "name": "",
          "type": "address"
        }
      ],
      "name": "addressToPost",
      "outputs": [
        {
          "name": "url",
          "type": "string"
        },
        {
          "name": "userName",
          "type": "string"
        },
        {
          "name": "lotteryAmount",
          "type": "int256"
        },
        {
          "name": "owner",
          "type": "address"
        }
      ],
      "payable": false,
      "stateMutability": "view",
      "type": "function"
    },
    {
      "constant": true,
      "inputs": [],
      "name": "getUser",
      "outputs": [
        {
          "name": "",
          "type": "string"
        },
        {
          "name": "",
          "type": "uint256"
        },
        {
          "name": "",
          "type": "string"
        },
        {
          "name": "",
          "type": "int256"
        },
        {
          "name": "",
          "type": "address"
        }
      ],
      "payable": false,
      "stateMutability": "view",
      "type": "function"
    },
    {
      "constant": true,
      "inputs": [],
      "name": "owner",
      "outputs": [
        {
          "name": "",
          "type": "address"
        }
      ],
      "payable": false,
      "stateMutability": "view",
      "type": "function"
    },
    {
      "constant": false,
      "inputs": [
        {
          "name": "url",
          "type": "string"
        }
      ],
      "name": "createPost",
      "outputs": [],
      "payable": false,
      "stateMutability": "nonpayable",
      "type": "function"
    },
    {
      "constant": true,
      "inputs": [
        {
          "name": "",
          "type": "address"
        }
      ],
      "name": "addressToUser",
      "outputs": [
        {
          "name": "name",
          "type": "string"
        },
        {
          "name": "coinBalance",
          "type": "uint256"
        }
      ],
      "payable": false,
      "stateMutability": "view",
      "type": "function"
    },
    {
      "constant": false,
      "inputs": [
        {
          "name": "newOwner",
          "type": "address"
        }
      ],
      "name": "transferOwnership",
      "outputs": [],
      "payable": false,
      "stateMutability": "nonpayable",
      "type": "function"
    },
    {
      "inputs": [],
      "payable": false,
      "stateMutability": "nonpayable",
      "type": "constructor"
    },
    {
      "payable": true,
      "stateMutability": "payable",
      "type": "fallback"
    },
    {
      "anonymous": false,
      "inputs": [
        {
          "indexed": false,
          "name": "name",
          "type": "string"
        }
      ],
      "name": "NewUser",
      "type": "event"
    },
    {
      "anonymous": false,
      "inputs": [
        {
          "indexed": false,
          "name": "coinBalance",
          "type": "uint256"
        }
      ],
      "name": "BoughtTokens",
      "type": "event"
    },
    {
      "anonymous": false,
      "inputs": [
        {
          "indexed": false,
          "name": "url",
          "type": "string"
        }
      ],
      "name": "CreatedPost",
      "type": "event"
    },
    {
      "anonymous": false,
      "inputs": [
        {
          "indexed": false,
          "name": "lotteryAmount",
          "type": "int256"
        },
        {
          "indexed": false,
          "name": "posterName",
          "type": "string"
        },
        {
          "indexed": false,
          "name": "poster",
          "type": "address"
        },
        {
          "indexed": false,
          "name": "posterCoinbalance",
          "type": "uint256"
        },
        {
          "indexed": false,
          "name": "likerName",
          "type": "string"
        },
        {
          "indexed": false,
          "name": "liker",
          "type": "address"
        },
        {
          "indexed": false,
          "name": "likerCoinbalance",
          "type": "uint256"
        }
      ],
      "name": "LikedPost",
      "type": "event"
    },
    {
      "anonymous": false,
      "inputs": [
        {
          "indexed": true,
          "name": "previousOwner",
          "type": "address"
        },
        {
          "indexed": true,
          "name": "newOwner",
          "type": "address"
        }
      ],
      "name": "OwnershipTransferred",
      "type": "event"
    }
  ],
  "bytecode": "0x6060604052620f42406001556000600255341561001b57600080fd5b336000806101000a81548173ffffffffffffffffffffffffffffffffffffffff021916908373ffffffffffffffffffffffffffffffffffffffff16021790555033600360006101000a81548173ffffffffffffffffffffffffffffffffffffffff021916908373ffffffffffffffffffffffffffffffffffffffff16021790555061178c806100ab6000396000f3006060604052600436106100c5576000357c0100000000000000000000000000000000000000000000000000000000900463ffffffff1680630b1e7f83146100c757806326ec928f1461012a5780633610724e146101d357806341c0e1b5146101eb57806341f3004a14610200578063483515291461026a578063507ffba5146102ac578063763f17c414610309578063832880e71461049b5780638da5cb5b146105d6578063c7303c611461062b578063edf5388614610688578063f2fde38b1461075e575b005b34156100d257600080fd5b6100e86004808035906020019091905050610797565b604051808273ffffffffffffffffffffffffffffffffffffffff1673ffffffffffffffffffffffffffffffffffffffff16815260200191505060405180910390f35b341561013557600080fd5b6101d1600480803590602001908201803590602001908080601f0160208091040260200160405190810160405280939291908181526020018383808284378201915050505050509190803590602001908201803590602001908080601f016020809104026020016040519081016040528093929190818152602001838380828437820191505050505050919080359060200190919050506107d6565b005b6101e960048080359060200190919050506107f6565b005b34156101f657600080fd5b6101fe6108f2565b005b341561020b57600080fd5b610213610985565b6040518080602001828103825283818151815260200191508051906020019060200280838360005b8381101561025657808201518184015260208101905061023b565b505050509050019250505060405180910390f35b341561027557600080fd5b6102aa600480803573ffffffffffffffffffffffffffffffffffffffff16906020019091908035906020019091905050610a19565b005b34156102b757600080fd5b610307600480803590602001908201803590602001908080601f01602080910402602001604051908101604052809392919081815260200183838082843782019150505050505091905050610e18565b005b341561031457600080fd5b610340600480803573ffffffffffffffffffffffffffffffffffffffff16906020019091905050610f1e565b6040518080602001806020018581526020018473ffffffffffffffffffffffffffffffffffffffff1673ffffffffffffffffffffffffffffffffffffffff1681526020018381038352878181546001816001161561010002031660029004815260200191508054600181600116156101000203166002900480156104055780601f106103da57610100808354040283529160200191610405565b820191906000526020600020905b8154815290600101906020018083116103e857829003601f168201915b50508381038252868181546001816001161561010002031660029004815260200191508054600181600116156101000203166002900480156104885780601f1061045d57610100808354040283529160200191610488565b820191906000526020600020905b81548152906001019060200180831161046b57829003601f168201915b5050965050505050505060405180910390f35b34156104a657600080fd5b6104ae610f6c565b6040518080602001868152602001806020018581526020018473ffffffffffffffffffffffffffffffffffffffff1673ffffffffffffffffffffffffffffffffffffffff168152602001838103835288818151815260200191508051906020019080838360005b83811015610530578082015181840152602081019050610515565b50505050905090810190601f16801561055d5780820380516001836020036101000a031916815260200191505b50838103825286818151815260200191508051906020019080838360005b8381101561059657808201518184015260208101905061057b565b50505050905090810190601f1680156105c35780820380516001836020036101000a031916815260200191505b5097505050505050505060405180910390f35b34156105e157600080fd5b6105e96111d5565b604051808273ffffffffffffffffffffffffffffffffffffffff1673ffffffffffffffffffffffffffffffffffffffff16815260200191505060405180910390f35b341561063657600080fd5b610686600480803590602001908201803590602001908080601f016020809104026020016040519081016040528093929190818152602001838380828437820191505050505050919050506111fa565b005b341561069357600080fd5b6106bf600480803573ffffffffffffffffffffffffffffffffffffffff16906020019091905050611468565b604051808060200183815260200182810382528481815460018160011615610100020316600290048152602001915080546001816001161561010002031660029004801561074e5780601f106107235761010080835404028352916020019161074e565b820191906000526020600020905b81548152906001019060200180831161073157829003601f168201915b5050935050505060405180910390f35b341561076957600080fd5b610795600480803573ffffffffffffffffffffffffffffffffffffffff1690602001909190505061148b565b005b6007818154811015156107a657fe5b90600052602060002090016000915054906101000a900473ffffffffffffffffffffffffffffffffffffffff1681565b6107df83610e18565b6107e8816107f6565b6107f1826111fa565b505050565b80600560003373ffffffffffffffffffffffffffffffffffffffff1673ffffffffffffffffffffffffffffffffffffffff168152602001908152602001600020600101600082825401925050819055508060026000828254019250508190555080600160008282540392505081905550346004600082825401925050819055507ffe1367e498701f2dfab80a3d41740d46fd7cba533430e611917f0f3df823279a600560003373ffffffffffffffffffffffffffffffffffffffff1673ffffffffffffffffffffffffffffffffffffffff168152602001908152602001600020600101546040518082815260200191505060405180910390a150565b600360009054906101000a900473ffffffffffffffffffffffffffffffffffffffff1673ffffffffffffffffffffffffffffffffffffffff163373ffffffffffffffffffffffffffffffffffffffff16141561098357600360009054906101000a900473ffffffffffffffffffffffffffffffffffffffff1673ffffffffffffffffffffffffffffffffffffffff16ff5b565b61098d6115e0565b6007805480602002602001604051908101604052809291908181526020018280548015610a0f57602002820191906000526020600020905b8160009054906101000a900473ffffffffffffffffffffffffffffffffffffffff1673ffffffffffffffffffffffffffffffffffffffff16815260200190600101908083116109c5575b5050505050905090565b80600660008473ffffffffffffffffffffffffffffffffffffffff1673ffffffffffffffffffffffffffffffffffffffff1681526020019081526020016000206002016000828254019250508190555080600560008473ffffffffffffffffffffffffffffffffffffffff1673ffffffffffffffffffffffffffffffffffffffff1681526020019081526020016000206001016000828254019250508190555080600560003373ffffffffffffffffffffffffffffffffffffffff1673ffffffffffffffffffffffffffffffffffffffff168152602001908152602001600020600101600082825403925050819055507f050cbab7fede968f252efba864c75069d68302f756e7f9c0093fb37faf2ba79b600660008473ffffffffffffffffffffffffffffffffffffffff1673ffffffffffffffffffffffffffffffffffffffff16815260200190815260200160002060020154600560008573ffffffffffffffffffffffffffffffffffffffff1673ffffffffffffffffffffffffffffffffffffffff16815260200190815260200160002060000184600560008773ffffffffffffffffffffffffffffffffffffffff1673ffffffffffffffffffffffffffffffffffffffff16815260200190815260200160002060010154600560003373ffffffffffffffffffffffffffffffffffffffff1673ffffffffffffffffffffffffffffffffffffffff16815260200190815260200160002060000133600560003373ffffffffffffffffffffffffffffffffffffffff1673ffffffffffffffffffffffffffffffffffffffff1681526020019081526020016000206001015460405180888152602001806020018773ffffffffffffffffffffffffffffffffffffffff1673ffffffffffffffffffffffffffffffffffffffff168152602001868152602001806020018573ffffffffffffffffffffffffffffffffffffffff1673ffffffffffffffffffffffffffffffffffffffff168152602001848152602001838103835289818154600181600116156101000203166002900481526020019150805460018160011615610100020316600290048015610d7c5780601f10610d5157610100808354040283529160200191610d7c565b820191906000526020600020905b815481529060010190602001808311610d5f57829003601f168201915b5050838103825286818154600181600116156101000203166002900481526020019150805460018160011615610100020316600290048015610dff5780601f10610dd457610100808354040283529160200191610dff565b820191906000526020600020905b815481529060010190602001808311610de257829003601f168201915b5050995050505050505050505060405180910390a15050565b6000600560003373ffffffffffffffffffffffffffffffffffffffff1673ffffffffffffffffffffffffffffffffffffffff168152602001908152602001600020905081816000019080519060200190610e739291906115f4565b50600081600101819055507f66ab3fea2083d9ba15d99b595186fe7fc18e6eba393c0fc056f420e96c3caa44826040518080602001828103825283818151815260200191508051906020019080838360005b83811015610ee0578082015181840152602081019050610ec5565b50505050905090810190601f168015610f0d5780820380516001836020036101000a031916815260200191505b509250505060405180910390a15050565b6006602052806000526040600020600091509050806000019080600101908060020154908060030160009054906101000a900473ffffffffffffffffffffffffffffffffffffffff16905084565b610f74611674565b6000610f7e611674565b600080600560003373ffffffffffffffffffffffffffffffffffffffff1673ffffffffffffffffffffffffffffffffffffffff168152602001908152602001600020600001600560003373ffffffffffffffffffffffffffffffffffffffff1673ffffffffffffffffffffffffffffffffffffffff16815260200190815260200160002060010154600660003373ffffffffffffffffffffffffffffffffffffffff1673ffffffffffffffffffffffffffffffffffffffff168152602001908152602001600020600001600660003373ffffffffffffffffffffffffffffffffffffffff1673ffffffffffffffffffffffffffffffffffffffff1681526020019081526020016000206002015433848054600181600116156101000203166002900480601f0160208091040260200160405190810160405280929190818152602001828054600181600116156101000203166002900480156111215780601f106110f657610100808354040283529160200191611121565b820191906000526020600020905b81548152906001019060200180831161110457829003601f168201915b50505050509450828054600181600116156101000203166002900480601f0160208091040260200160405190810160405280929190818152602001828054600181600116156101000203166002900480156111bd5780601f10611192576101008083540402835291602001916111bd565b820191906000526020600020905b8154815290600101906020018083116111a057829003601f168201915b50505050509250945094509450945094509091929394565b6000809054906101000a900473ffffffffffffffffffffffffffffffffffffffff1681565b6000600660003373ffffffffffffffffffffffffffffffffffffffff1673ffffffffffffffffffffffffffffffffffffffff1681526020019081526020016000209050818160000190805190602001906112559291906115f4565b5060058160020160008282540392505081905550600560003373ffffffffffffffffffffffffffffffffffffffff1673ffffffffffffffffffffffffffffffffffffffff1681526020019081526020016000206000018160010190805460018160011615610100020316600290046112ce929190611688565b50338160030160006101000a81548173ffffffffffffffffffffffffffffffffffffffff021916908373ffffffffffffffffffffffffffffffffffffffff160217905550600160078054806001018281611328919061170f565b9160005260206000209001600033909190916101000a81548173ffffffffffffffffffffffffffffffffffffffff021916908373ffffffffffffffffffffffffffffffffffffffff160217905550505060058060003373ffffffffffffffffffffffffffffffffffffffff1673ffffffffffffffffffffffffffffffffffffffff168152602001908152602001600020600101600082825403925050819055507f3b6c110dfadc879ec2bbc1dc567f9065fd5ea5846bce75fddba0f60ffcc79fac826040518080602001828103825283818151815260200191508051906020019080838360005b8381101561142a57808201518184015260208101905061140f565b50505050905090810190601f1680156114575780820380516001836020036101000a031916815260200191505b509250505060405180910390a15050565b600560205280600052604060002060009150905080600001908060010154905082565b6000809054906101000a900473ffffffffffffffffffffffffffffffffffffffff1673ffffffffffffffffffffffffffffffffffffffff163373ffffffffffffffffffffffffffffffffffffffff161415156114e657600080fd5b600073ffffffffffffffffffffffffffffffffffffffff168173ffffffffffffffffffffffffffffffffffffffff161415151561152257600080fd5b8073ffffffffffffffffffffffffffffffffffffffff166000809054906101000a900473ffffffffffffffffffffffffffffffffffffffff1673ffffffffffffffffffffffffffffffffffffffff167f8be0079c531659141344cd1fd0a4f28419497f9722a3daafe3b4186f6b6457e060405160405180910390a3806000806101000a81548173ffffffffffffffffffffffffffffffffffffffff021916908373ffffffffffffffffffffffffffffffffffffffff16021790555050565b602060405190810160405280600081525090565b828054600181600116156101000203166002900490600052602060002090601f016020900481019282601f1061163557805160ff1916838001178555611663565b82800160010185558215611663579182015b82811115611662578251825591602001919060010190611647565b5b509050611670919061173b565b5090565b602060405190810160405280600081525090565b828054600181600116156101000203166002900490600052602060002090601f016020900481019282601f106116c157805485556116fe565b828001600101855582156116fe57600052602060002091601f016020900482015b828111156116fd5782548255916001019190600101906116e2565b5b50905061170b919061173b565b5090565b81548183558181151161173657818360005260206000209182019101611735919061173b565b5b505050565b61175d91905b80821115611759576000816000905550600101611741565b5090565b905600a165627a7a723058209bf6da214a14801f0c8a1e8ec9edc4bda96578d11db1b161891a9a3594209bb60029",
  "source": "pragma solidity ^0.4.18;\n\nimport 'zeppelin-solidity/contracts/ownership/Ownable.sol';\n\ncontract CapCoin is Ownable {\n\n  event NewUser(string name);\n  event BoughtTokens(uint coinBalance);\n  event CreatedPost(string url);\n  event LikedPost(int lotteryAmount, string posterName,\n    address poster, uint posterCoinbalance, string likerName,\n    address liker, uint likerCoinbalance);\n\n  uint coinSupply = 1000000;\n  uint coinsBought = 0;\n  address owner;\n  uint value;\n\n  function CapCoin () {\n    owner = msg.sender;\n  }\n\n  struct User {\n    string name;\n    uint coinBalance;\n  }\n\n  struct Post {\n    string url;\n    string userName;\n    int lotteryAmount;\n    address owner;\n  }\n\n  mapping (address => User) public addressToUser;\n  mapping (address => Post) public addressToPost;\n  address[] public posts;\n\n  function createUser(string name) public {\n    var user = addressToUser[msg.sender];\n    user.name = name;\n    user.coinBalance = 0;\n    NewUser(name);\n  }\n\n  function getUser() public view returns (string, uint, string, int, address) {\n    return (addressToUser[msg.sender].name,\n      addressToUser[msg.sender].coinBalance,\n      addressToPost[msg.sender].url,\n      addressToPost[msg.sender].lotteryAmount,\n      msg.sender);\n  }\n\n  // need to add economics\n  function buyTokens(uint amount) payable public {\n    addressToUser[msg.sender].coinBalance += amount;\n    coinsBought += amount;\n    coinSupply -= amount;\n    value += msg.value;\n    BoughtTokens(addressToUser[msg.sender].coinBalance);\n  }\n\n  function createPost(string url) public {\n    // 5 coins per post\n    var post = addressToPost[msg.sender];\n    post.url = url;\n    post.lotteryAmount -= 5;\n    post.userName = addressToUser[msg.sender].name;\n    post.owner = msg.sender;\n\n    posts.push(msg.sender) -1;\n    addressToUser[msg.sender].coinBalance -= 5;\n    CreatedPost(url);\n  }\n\n  function likePost(address post, uint amount) public {\n    addressToPost[post].lotteryAmount += int(amount);\n    addressToUser[post].coinBalance += amount;\n    addressToUser[msg.sender].coinBalance -= amount;\n    LikedPost(addressToPost[post].lotteryAmount,\n      addressToUser[post].name, post, addressToUser[post].coinBalance,\n      addressToUser[msg.sender].name, msg.sender, addressToUser[msg.sender].coinBalance);\n  }\n\n  function getPosts() public view returns (address[]) {\n      return posts;\n  }\n\n  function seed(string name, string url, uint amount) public {\n      createUser(name);\n      buyTokens(amount);\n      createPost(url);\n  }\n\n    function kill() {\n      if (msg.sender == owner) {\n        selfdestruct(owner);\n      }\n    }\n\n  function() payable {}\n}\n",
  "sourcePath": "/Users/schwartzz8990/Dropbox/fullstack/capCoin/contracts/CapCoin.sol",
  "compiler": {
    "name": "solc",
    "version": "0.4.18+commit.9cf6e910.Emscripten.clang"
  },
  "schemaVersion": "1.0.1",
  "updatedAt": "2018-01-20T19:00:49.730Z"
}