{
  "contractName": "CapCoin",
  "abi": [
    {
      "constant": true,
      "inputs": [],
      "name": "getUsers",
      "outputs": [
        {
          "name": "",
          "type": "address[]"
        }
      ],
      "payable": false,
      "stateMutability": "view",
      "type": "function"
    },
    {
      "constant": true,
      "inputs": [
        {
          "name": "",
          "type": "uint256"
        }
      ],
      "name": "posts",
      "outputs": [
        {
          "name": "",
          "type": "address"
        }
      ],
      "payable": false,
      "stateMutability": "view",
      "type": "function"
    },
    {
      "constant": false,
      "inputs": [
        {
          "name": "name",
          "type": "string"
        },
        {
          "name": "url",
          "type": "string"
        },
        {
          "name": "amount",
          "type": "uint256"
        }
      ],
      "name": "seed",
      "outputs": [],
      "payable": false,
      "stateMutability": "nonpayable",
      "type": "function"
    },
    {
      "constant": false,
      "inputs": [
        {
          "name": "amount",
          "type": "uint256"
        }
      ],
      "name": "buyTokens",
      "outputs": [],
      "payable": false,
      "stateMutability": "nonpayable",
      "type": "function"
    },
    {
      "constant": true,
      "inputs": [
        {
          "name": "",
          "type": "uint256"
        }
      ],
      "name": "users",
      "outputs": [
        {
          "name": "",
          "type": "address"
        }
      ],
      "payable": false,
      "stateMutability": "view",
      "type": "function"
    },
    {
      "constant": true,
      "inputs": [],
      "name": "getPosts",
      "outputs": [
        {
          "name": "",
          "type": "address[]"
        }
      ],
      "payable": false,
      "stateMutability": "view",
      "type": "function"
    },
    {
      "constant": false,
      "inputs": [
        {
          "name": "name",
          "type": "string"
        }
      ],
      "name": "createUser",
      "outputs": [],
      "payable": false,
      "stateMutability": "nonpayable",
      "type": "function"
    },
    {
      "constant": true,
      "inputs": [
        {
          "name": "",
          "type": "address"
        }
      ],
      "name": "addressToPost",
      "outputs": [
        {
          "name": "url",
          "type": "string"
        },
        {
          "name": "userName",
          "type": "string"
        },
        {
          "name": "lotteryAmount",
          "type": "uint256"
        }
      ],
      "payable": false,
      "stateMutability": "view",
      "type": "function"
    },
    {
      "constant": true,
      "inputs": [],
      "name": "getUser",
      "outputs": [
        {
          "name": "",
          "type": "string"
        },
        {
          "name": "",
          "type": "uint256"
        },
        {
          "name": "",
          "type": "string"
        },
        {
          "name": "",
          "type": "uint256"
        }
      ],
      "payable": false,
      "stateMutability": "view",
      "type": "function"
    },
    {
      "constant": false,
      "inputs": [
        {
          "name": "url",
          "type": "string"
        }
      ],
      "name": "createPost",
      "outputs": [],
      "payable": false,
      "stateMutability": "nonpayable",
      "type": "function"
    },
    {
      "constant": true,
      "inputs": [
        {
          "name": "",
          "type": "address"
        }
      ],
      "name": "addressToUser",
      "outputs": [
        {
          "name": "name",
          "type": "string"
        },
        {
          "name": "coinBalance",
          "type": "uint256"
        },
        {
          "name": "postNum",
          "type": "uint256"
        }
      ],
      "payable": false,
      "stateMutability": "view",
      "type": "function"
    },
    {
      "inputs": [],
      "payable": false,
      "stateMutability": "nonpayable",
      "type": "constructor"
    },
    {
      "payable": true,
      "stateMutability": "payable",
      "type": "fallback"
    },
    {
      "anonymous": false,
      "inputs": [
        {
          "indexed": false,
          "name": "name",
          "type": "string"
        }
      ],
      "name": "NewUser",
      "type": "event"
    },
    {
      "anonymous": false,
      "inputs": [
        {
          "indexed": false,
          "name": "coinBalance",
          "type": "uint256"
        }
      ],
      "name": "BoughtTokens",
      "type": "event"
    },
    {
      "anonymous": false,
      "inputs": [
        {
          "indexed": false,
          "name": "url",
          "type": "string"
        }
      ],
      "name": "CreatedPost",
      "type": "event"
    }
  ],
  "bytecode": "0x6060604052620f42406000556000600155341561001b57600080fd5b60016002819055506111b5806100326000396000f3006060604052600436106100ae576000357c0100000000000000000000000000000000000000000000000000000000900463ffffffff168062ce8e3e146100b05780630b1e7f831461011a57806326ec928f1461017d5780633610724e14610226578063365b98b21461024957806341f3004a146102ac578063507ffba514610316578063763f17c414610373578063832880e7146104d2578063c7303c61146105da578063edf5388614610637575b005b34156100bb57600080fd5b6100c3610714565b6040518080602001828103825283818151815260200191508051906020019060200280838360005b838110156101065780820151818401526020810190506100eb565b505050509050019250505060405180910390f35b341561012557600080fd5b61013b60048080359060200190919050506107a8565b604051808273ffffffffffffffffffffffffffffffffffffffff1673ffffffffffffffffffffffffffffffffffffffff16815260200191505060405180910390f35b341561018857600080fd5b610224600480803590602001908201803590602001908080601f0160208091040260200160405190810160405280939291908181526020018383808284378201915050505050509190803590602001908201803590602001908080601f016020809104026020016040519081016040528093929190818152602001838380828437820191505050505050919080359060200190919050506107e7565b005b341561023157600080fd5b6102476004808035906020019091905050610807565b005b341561025457600080fd5b61026a60048080359060200190919050506108f2565b604051808273ffffffffffffffffffffffffffffffffffffffff1673ffffffffffffffffffffffffffffffffffffffff16815260200191505060405180910390f35b34156102b757600080fd5b6102bf610931565b6040518080602001828103825283818151815260200191508051906020019060200280838360005b838110156103025780820151818401526020810190506102e7565b505050509050019250505060405180910390f35b341561032157600080fd5b610371600480803590602001908201803590602001908080601f016020809104026020016040519081016040528093929190818152602001838380828437820191505050505050919050506109c5565b005b341561037e57600080fd5b6103aa600480803573ffffffffffffffffffffffffffffffffffffffff16906020019091905050610b31565b60405180806020018060200184815260200183810383528681815460018160011615610100020316600290048152602001915080546001816001161561010002031660029004801561043d5780601f106104125761010080835404028352916020019161043d565b820191906000526020600020905b81548152906001019060200180831161042057829003601f168201915b50508381038252858181546001816001161561010002031660029004815260200191508054600181600116156101000203166002900480156104c05780601f10610495576101008083540402835291602001916104c0565b820191906000526020600020905b8154815290600101906020018083116104a357829003601f168201915b50509550505050505060405180910390f35b34156104dd57600080fd5b6104e5610b59565b604051808060200185815260200180602001848152602001838103835287818151815260200191508051906020019080838360005b8381101561053557808201518184015260208101905061051a565b50505050905090810190601f1680156105625780820380516001836020036101000a031916815260200191505b50838103825285818151815260200191508051906020019080838360005b8381101561059b578082015181840152602081019050610580565b50505050905090810190601f1680156105c85780820380516001836020036101000a031916815260200191505b50965050505050505060405180910390f35b34156105e557600080fd5b610635600480803590602001908201803590602001908080601f01602080910402602001604051908101604052809392919081815260200183838082843782019150505050505091905050610dbd565b005b341561064257600080fd5b61066e600480803573ffffffffffffffffffffffffffffffffffffffff16906020019091905050610fe0565b60405180806020018481526020018381526020018281038252858181546001816001161561010002031660029004815260200191508054600181600116156101000203166002900480156107035780601f106106d857610100808354040283529160200191610703565b820191906000526020600020905b8154815290600101906020018083116106e657829003601f168201915b505094505050505060405180910390f35b61071c611009565b600580548060200260200160405190810160405280929190818152602001828054801561079e57602002820191906000526020600020905b8160009054906101000a900473ffffffffffffffffffffffffffffffffffffffff1673ffffffffffffffffffffffffffffffffffffffff1681526020019060010190808311610754575b5050505050905090565b6006818154811015156107b757fe5b90600052602060002090016000915054906101000a900473ffffffffffffffffffffffffffffffffffffffff1681565b6107f0836109c5565b6107f981610807565b61080282610dbd565b505050565b80600360003373ffffffffffffffffffffffffffffffffffffffff1673ffffffffffffffffffffffffffffffffffffffff16815260200190815260200160002060010160008282540192505081905550806001600082825401925050819055508060008082825403925050819055507ffe1367e498701f2dfab80a3d41740d46fd7cba533430e611917f0f3df823279a600360003373ffffffffffffffffffffffffffffffffffffffff1673ffffffffffffffffffffffffffffffffffffffff168152602001908152602001600020600101546040518082815260200191505060405180910390a150565b60058181548110151561090157fe5b90600052602060002090016000915054906101000a900473ffffffffffffffffffffffffffffffffffffffff1681565b610939611009565b60068054806020026020016040519081016040528092919081815260200182805480156109bb57602002820191906000526020600020905b8160009054906101000a900473ffffffffffffffffffffffffffffffffffffffff1673ffffffffffffffffffffffffffffffffffffffff1681526020019060010190808311610971575b5050505050905090565b6000600360003373ffffffffffffffffffffffffffffffffffffffff1673ffffffffffffffffffffffffffffffffffffffff168152602001908152602001600020905081816000019080519060200190610a2092919061101d565b5060008160010181905550600160058054806001018281610a41919061109d565b9160005260206000209001600033909190916101000a81548173ffffffffffffffffffffffffffffffffffffffff021916908373ffffffffffffffffffffffffffffffffffffffff16021790555050507f66ab3fea2083d9ba15d99b595186fe7fc18e6eba393c0fc056f420e96c3caa44826040518080602001828103825283818151815260200191508051906020019080838360005b83811015610af3578082015181840152602081019050610ad8565b50505050905090810190601f168015610b205780820380516001836020036101000a031916815260200191505b509250505060405180910390a15050565b6004602052806000526040600020600091509050806000019080600101908060020154905083565b610b616110c9565b6000610b6b6110c9565b6000600360003373ffffffffffffffffffffffffffffffffffffffff1673ffffffffffffffffffffffffffffffffffffffff168152602001908152602001600020600001600360003373ffffffffffffffffffffffffffffffffffffffff1673ffffffffffffffffffffffffffffffffffffffff16815260200190815260200160002060010154600460003373ffffffffffffffffffffffffffffffffffffffff1673ffffffffffffffffffffffffffffffffffffffff168152602001908152602001600020600001600460003373ffffffffffffffffffffffffffffffffffffffff1673ffffffffffffffffffffffffffffffffffffffff16815260200190815260200160002060020154838054600181600116156101000203166002900480601f016020809104026020016040519081016040528092919081815260200182805460018160011615610100020316600290048015610d0c5780601f10610ce157610100808354040283529160200191610d0c565b820191906000526020600020905b815481529060010190602001808311610cef57829003601f168201915b50505050509350818054600181600116156101000203166002900480601f016020809104026020016040519081016040528092919081815260200182805460018160011615610100020316600290048015610da85780601f10610d7d57610100808354040283529160200191610da8565b820191906000526020600020905b815481529060010190602001808311610d8b57829003601f168201915b50505050509150935093509350935090919293565b6000600460003373ffffffffffffffffffffffffffffffffffffffff1673ffffffffffffffffffffffffffffffffffffffff168152602001908152602001600020905081816000019080519060200190610e1892919061101d565b5060058160020181905550600360003373ffffffffffffffffffffffffffffffffffffffff1673ffffffffffffffffffffffffffffffffffffffff168152602001908152602001600020600001816001019080546001816001161561010002031660029004610e889291906110dd565b50600160068054806001018281610e9f919061109d565b9160005260206000209001600033909190916101000a81548173ffffffffffffffffffffffffffffffffffffffff021916908373ffffffffffffffffffffffffffffffffffffffff16021790555050506005600360003373ffffffffffffffffffffffffffffffffffffffff1673ffffffffffffffffffffffffffffffffffffffff168152602001908152602001600020600101600082825403925050819055507f3b6c110dfadc879ec2bbc1dc567f9065fd5ea5846bce75fddba0f60ffcc79fac826040518080602001828103825283818151815260200191508051906020019080838360005b83811015610fa2578082015181840152602081019050610f87565b50505050905090810190601f168015610fcf5780820380516001836020036101000a031916815260200191505b509250505060405180910390a15050565b600360205280600052604060002060009150905080600001908060010154908060020154905083565b602060405190810160405280600081525090565b828054600181600116156101000203166002900490600052602060002090601f016020900481019282601f1061105e57805160ff191683800117855561108c565b8280016001018555821561108c579182015b8281111561108b578251825591602001919060010190611070565b5b5090506110999190611164565b5090565b8154818355818115116110c4578183600052602060002091820191016110c39190611164565b5b505050565b602060405190810160405280600081525090565b828054600181600116156101000203166002900490600052602060002090601f016020900481019282601f106111165780548555611153565b8280016001018555821561115357600052602060002091601f016020900482015b82811115611152578254825591600101919060010190611137565b5b5090506111609190611164565b5090565b61118691905b8082111561118257600081600090555060010161116a565b5090565b905600a165627a7a723058201815e8cb41a2a3ba1cb23f297f3deb86cfa4eb898c5d86c3fe34bc6f877796bb0029",
  "source": "pragma solidity ^0.4.18;\n\ncontract CapCoin {\n\n  event NewUser(string name);\n  event BoughtTokens(uint coinBalance);\n  event CreatedPost(string url);\n\n  uint coinSupply = 1000000;\n  uint coinsBought = 0;\n  uint contractNum;\n\n  function CapCoin () {\n    contractNum = 1;\n  }\n\n  struct User {\n    string name;\n    uint coinBalance;\n    uint postNum;\n  }\n\n  struct Post {\n    string url;\n    string userName;\n    uint lotteryAmount;\n    string[] captions;\n  }\n\n  mapping (address => User) public addressToUser;\n  mapping (address => Post) public addressToPost;\n  address[] public users;\n  address[] public posts;\n\n  function createUser(string name) public {\n    var user = addressToUser[msg.sender];\n\n    user.name = name;\n    user.coinBalance = 0;\n\n    users.push(msg.sender) -1;\n    NewUser(name);\n  }\n\n  function getUsers() public view returns (address[]) {\n    return users;\n  }\n\n  function getUser() public view returns (string, uint, string, uint) {\n    return (addressToUser[msg.sender].name,\n      addressToUser[msg.sender].coinBalance,\n      addressToPost[msg.sender].url,\n      addressToPost[msg.sender].lotteryAmount);\n  }\n\n  function buyTokens(uint amount) public {\n    addressToUser[msg.sender].coinBalance += amount;\n    coinsBought += amount;\n    coinSupply -= amount;\n    BoughtTokens(addressToUser[msg.sender].coinBalance);\n  }\n\n  function createPost(string url) public {\n    // 5 coins per post\n    var post = addressToPost[msg.sender];\n    post.url = url;\n    post.lotteryAmount = 5;\n    post.userName = addressToUser[msg.sender].name;\n\n    posts.push(msg.sender) -1;\n    addressToUser[msg.sender].coinBalance -= 5;\n    CreatedPost(url);\n  }\n\n  function getPosts() public view returns (address[]) {\n      return posts;\n  }\n\n  function seed(string name, string url, uint amount) public {\n      createUser(name);\n      buyTokens(amount);\n      createPost(url);\n  }\n\n  function() internal payable {}\n}\n",
  "sourcePath": "/Users/schwartzz8990/Dropbox/fullstack/capCoin/contracts/CapCoin.sol",
  "compiler": {
    "name": "solc",
    "version": "0.4.18+commit.9cf6e910.Emscripten.clang"
  },
  "schemaVersion": "1.0.1",
  "updatedAt": "2018-01-19T15:45:44.975Z"
}