{
  "contractName": "CapCoin",
  "abi": [
    {
      "constant": true,
      "inputs": [],
      "name": "getUsers",
      "outputs": [
        {
          "name": "",
          "type": "address[]"
        }
      ],
      "payable": false,
      "stateMutability": "view",
      "type": "function"
    },
    {
      "constant": true,
      "inputs": [
        {
          "name": "",
          "type": "uint256"
        }
      ],
      "name": "posts",
      "outputs": [
        {
          "name": "",
          "type": "address"
        }
      ],
      "payable": false,
      "stateMutability": "view",
      "type": "function"
    },
    {
      "constant": false,
      "inputs": [
        {
          "name": "amount",
          "type": "uint256"
        }
      ],
      "name": "buyTokens",
      "outputs": [],
      "payable": false,
      "stateMutability": "nonpayable",
      "type": "function"
    },
    {
      "constant": true,
      "inputs": [
        {
          "name": "",
          "type": "uint256"
        }
      ],
      "name": "users",
      "outputs": [
        {
          "name": "",
          "type": "address"
        }
      ],
      "payable": false,
      "stateMutability": "view",
      "type": "function"
    },
    {
      "constant": false,
      "inputs": [
        {
          "name": "name",
          "type": "string"
        }
      ],
      "name": "createUser",
      "outputs": [],
      "payable": false,
      "stateMutability": "nonpayable",
      "type": "function"
    },
    {
      "constant": true,
      "inputs": [
        {
          "name": "",
          "type": "address"
        }
      ],
      "name": "addressToPost",
      "outputs": [
        {
          "name": "url",
          "type": "string"
        },
        {
          "name": "lotteryAmount",
          "type": "uint256"
        }
      ],
      "payable": false,
      "stateMutability": "view",
      "type": "function"
    },
    {
      "constant": true,
      "inputs": [],
      "name": "getUser",
      "outputs": [
        {
          "name": "",
          "type": "string"
        },
        {
          "name": "",
          "type": "uint256"
        },
        {
          "name": "",
          "type": "string"
        },
        {
          "name": "",
          "type": "uint256"
        }
      ],
      "payable": false,
      "stateMutability": "view",
      "type": "function"
    },
    {
      "constant": false,
      "inputs": [
        {
          "name": "url",
          "type": "string"
        }
      ],
      "name": "createPost",
      "outputs": [],
      "payable": false,
      "stateMutability": "nonpayable",
      "type": "function"
    },
    {
      "constant": true,
      "inputs": [
        {
          "name": "",
          "type": "address"
        }
      ],
      "name": "addressToUser",
      "outputs": [
        {
          "name": "name",
          "type": "string"
        },
        {
          "name": "coinBalance",
          "type": "uint256"
        },
        {
          "name": "postNum",
          "type": "uint256"
        }
      ],
      "payable": false,
      "stateMutability": "view",
      "type": "function"
    },
    {
      "inputs": [],
      "payable": false,
      "stateMutability": "nonpayable",
      "type": "constructor"
    },
    {
      "payable": true,
      "stateMutability": "payable",
      "type": "fallback"
    },
    {
      "anonymous": false,
      "inputs": [
        {
          "indexed": false,
          "name": "name",
          "type": "string"
        }
      ],
      "name": "NewUser",
      "type": "event"
    },
    {
      "anonymous": false,
      "inputs": [
        {
          "indexed": false,
          "name": "coinBalance",
          "type": "uint256"
        }
      ],
      "name": "BoughtTokens",
      "type": "event"
    },
    {
      "anonymous": false,
      "inputs": [
        {
          "indexed": false,
          "name": "url",
          "type": "string"
        }
      ],
      "name": "CreatedPost",
      "type": "event"
    }
  ],
  "bytecode": "0x6060604052620f42406000556000600155341561001b57600080fd5b6001600281905550610e5d806100326000396000f300606060405260043610610098576000357c0100000000000000000000000000000000000000000000000000000000900463ffffffff168062ce8e3e1461009a5780630b1e7f83146101045780633610724e14610167578063365b98b21461018a578063507ffba5146101ed578063763f17c41461024a578063832880e714610320578063c7303c6114610428578063edf5388614610485575b005b34156100a557600080fd5b6100ad610562565b6040518080602001828103825283818151815260200191508051906020019060200280838360005b838110156100f05780820151818401526020810190506100d5565b505050509050019250505060405180910390f35b341561010f57600080fd5b61012560048080359060200190919050506105f6565b604051808273ffffffffffffffffffffffffffffffffffffffff1673ffffffffffffffffffffffffffffffffffffffff16815260200191505060405180910390f35b341561017257600080fd5b6101886004808035906020019091905050610635565b005b341561019557600080fd5b6101ab6004808035906020019091905050610720565b604051808273ffffffffffffffffffffffffffffffffffffffff1673ffffffffffffffffffffffffffffffffffffffff16815260200191505060405180910390f35b34156101f857600080fd5b610248600480803590602001908201803590602001908080601f0160208091040260200160405190810160405280939291908181526020018383808284378201915050505050509190505061075f565b005b341561025557600080fd5b610281600480803573ffffffffffffffffffffffffffffffffffffffff169060200190919050506108cb565b60405180806020018381526020018281038252848181546001816001161561010002031660029004815260200191508054600181600116156101000203166002900480156103105780601f106102e557610100808354040283529160200191610310565b820191906000526020600020905b8154815290600101906020018083116102f357829003601f168201915b5050935050505060405180910390f35b341561032b57600080fd5b6103336108ee565b604051808060200185815260200180602001848152602001838103835287818151815260200191508051906020019080838360005b83811015610383578082015181840152602081019050610368565b50505050905090810190601f1680156103b05780820380516001836020036101000a031916815260200191505b50838103825285818151815260200191508051906020019080838360005b838110156103e95780820151818401526020810190506103ce565b50505050905090810190601f1680156104165780820380516001836020036101000a031916815260200191505b50965050505050505060405180910390f35b341561043357600080fd5b610483600480803590602001908201803590602001908080601f01602080910402602001604051908101604052809392919081815260200183838082843782019150505050505091905050610b52565b005b341561049057600080fd5b6104bc600480803573ffffffffffffffffffffffffffffffffffffffff16906020019091905050610d0f565b60405180806020018481526020018381526020018281038252858181546001816001161561010002031660029004815260200191508054600181600116156101000203166002900480156105515780601f1061052657610100808354040283529160200191610551565b820191906000526020600020905b81548152906001019060200180831161053457829003601f168201915b505094505050505060405180910390f35b61056a610d38565b60058054806020026020016040519081016040528092919081815260200182805480156105ec57602002820191906000526020600020905b8160009054906101000a900473ffffffffffffffffffffffffffffffffffffffff1673ffffffffffffffffffffffffffffffffffffffff16815260200190600101908083116105a2575b5050505050905090565b60068181548110151561060557fe5b90600052602060002090016000915054906101000a900473ffffffffffffffffffffffffffffffffffffffff1681565b80600360003373ffffffffffffffffffffffffffffffffffffffff1673ffffffffffffffffffffffffffffffffffffffff16815260200190815260200160002060010160008282540192505081905550806001600082825401925050819055508060008082825403925050819055507ffe1367e498701f2dfab80a3d41740d46fd7cba533430e611917f0f3df823279a600360003373ffffffffffffffffffffffffffffffffffffffff1673ffffffffffffffffffffffffffffffffffffffff168152602001908152602001600020600101546040518082815260200191505060405180910390a150565b60058181548110151561072f57fe5b90600052602060002090016000915054906101000a900473ffffffffffffffffffffffffffffffffffffffff1681565b6000600360003373ffffffffffffffffffffffffffffffffffffffff1673ffffffffffffffffffffffffffffffffffffffff1681526020019081526020016000209050818160000190805190602001906107ba929190610d4c565b50600081600101819055506001600580548060010182816107db9190610dcc565b9160005260206000209001600033909190916101000a81548173ffffffffffffffffffffffffffffffffffffffff021916908373ffffffffffffffffffffffffffffffffffffffff16021790555050507f66ab3fea2083d9ba15d99b595186fe7fc18e6eba393c0fc056f420e96c3caa44826040518080602001828103825283818151815260200191508051906020019080838360005b8381101561088d578082015181840152602081019050610872565b50505050905090810190601f1680156108ba5780820380516001836020036101000a031916815260200191505b509250505060405180910390a15050565b600460205280600052604060002060009150905080600001908060010154905082565b6108f6610df8565b6000610900610df8565b6000600360003373ffffffffffffffffffffffffffffffffffffffff1673ffffffffffffffffffffffffffffffffffffffff168152602001908152602001600020600001600360003373ffffffffffffffffffffffffffffffffffffffff1673ffffffffffffffffffffffffffffffffffffffff16815260200190815260200160002060010154600460003373ffffffffffffffffffffffffffffffffffffffff1673ffffffffffffffffffffffffffffffffffffffff168152602001908152602001600020600001600460003373ffffffffffffffffffffffffffffffffffffffff1673ffffffffffffffffffffffffffffffffffffffff16815260200190815260200160002060010154838054600181600116156101000203166002900480601f016020809104026020016040519081016040528092919081815260200182805460018160011615610100020316600290048015610aa15780601f10610a7657610100808354040283529160200191610aa1565b820191906000526020600020905b815481529060010190602001808311610a8457829003601f168201915b50505050509350818054600181600116156101000203166002900480601f016020809104026020016040519081016040528092919081815260200182805460018160011615610100020316600290048015610b3d5780601f10610b1257610100808354040283529160200191610b3d565b820191906000526020600020905b815481529060010190602001808311610b2057829003601f168201915b50505050509150935093509350935090919293565b6000600460003373ffffffffffffffffffffffffffffffffffffffff1673ffffffffffffffffffffffffffffffffffffffff168152602001908152602001600020905081816000019080519060200190610bad929190610d4c565b5060058160010181905550600160068054806001018281610bce9190610dcc565b9160005260206000209001600033909190916101000a81548173ffffffffffffffffffffffffffffffffffffffff021916908373ffffffffffffffffffffffffffffffffffffffff16021790555050506005600360003373ffffffffffffffffffffffffffffffffffffffff1673ffffffffffffffffffffffffffffffffffffffff168152602001908152602001600020600101600082825403925050819055507f3b6c110dfadc879ec2bbc1dc567f9065fd5ea5846bce75fddba0f60ffcc79fac826040518080602001828103825283818151815260200191508051906020019080838360005b83811015610cd1578082015181840152602081019050610cb6565b50505050905090810190601f168015610cfe5780820380516001836020036101000a031916815260200191505b509250505060405180910390a15050565b600360205280600052604060002060009150905080600001908060010154908060020154905083565b602060405190810160405280600081525090565b828054600181600116156101000203166002900490600052602060002090601f016020900481019282601f10610d8d57805160ff1916838001178555610dbb565b82800160010185558215610dbb579182015b82811115610dba578251825591602001919060010190610d9f565b5b509050610dc89190610e0c565b5090565b815481835581811511610df357818360005260206000209182019101610df29190610e0c565b5b505050565b602060405190810160405280600081525090565b610e2e91905b80821115610e2a576000816000905550600101610e12565b5090565b905600a165627a7a723058208250da5121e6843ef4de46d1a13b5495e399c896acfd7db568a1c91654e623d90029",
  "source": "pragma solidity ^0.4.18;\n\ncontract CapCoin {\n\n  event NewUser(string name);\n  event BoughtTokens(uint coinBalance);\n  event CreatedPost(string url);\n\n  uint coinSupply = 1000000;\n  uint coinsBought = 0;\n  uint contractNum;\n\n  function CapCoin () {\n    contractNum = 1;\n  }\n\n  struct User {\n    string name;\n    uint coinBalance;\n    uint postNum;\n  }\n\n  struct Post {\n    string url;\n    uint lotteryAmount;\n  }\n\n  mapping (address => User) public addressToUser;\n  mapping (address => Post) public addressToPost;\n  address[] public users;\n  address[] public posts;\n\n  function createUser(string name) public {\n    var user = addressToUser[msg.sender];\n\n    user.name = name;\n    user.coinBalance = 0;\n\n    users.push(msg.sender) -1;\n    NewUser(name);\n  }\n\n  function getUsers() public view returns (address[]) {\n    return users;\n  }\n\n  function getUser() public view returns (string, uint, string, uint) {\n    return (addressToUser[msg.sender].name,\n      addressToUser[msg.sender].coinBalance,\n      addressToPost[msg.sender].url,\n      addressToPost[msg.sender].lotteryAmount);\n  }\n\n  function buyTokens(uint amount) public {\n    addressToUser[msg.sender].coinBalance += amount;\n    coinsBought += amount;\n    coinSupply -= amount;\n    BoughtTokens(addressToUser[msg.sender].coinBalance);\n  }\n\n  function createPost(string url) public {\n    // 5 coins per post\n    var post = addressToPost[msg.sender];\n    post.url = url;\n    post.lotteryAmount = 5;\n    posts.push(msg.sender) -1;\n    addressToUser[msg.sender].coinBalance -= 5;\n    CreatedPost(url);\n  }\n\n  function() internal payable {}\n}\n",
  "sourcePath": "/Users/schwartzz8990/Dropbox/fullstack/capCoin/contracts/CapCoin.sol",
  "compiler": {
    "name": "solc",
    "version": "0.4.18+commit.9cf6e910.Emscripten.clang"
  },
  "schemaVersion": "1.0.1",
  "updatedAt": "2018-01-19T04:15:13.230Z"
}